:020000040800F2
:10000000500F002089010008D7290008CF290008D7
:10001000D3290008C1260008053B000800000000A5
:100020000000000000000000000000005130000847
:10003000C5260008000000000D300008D534000877
:10004000A3010008A3010008A3010008A301000800
:10005000A3010008A3010008A3010008A3010008F0
:10006000A3010008A3010008A3010008A3010008E0
:10007000A3010008A3010008A3010008A3010008D0
:10008000A3010008A3010008A3010008A3010008C0
:10009000A3010008A3010008A3010008A3010008B0
:1000A000A3010008A3010008A3010008A3010008A0
:1000B000A3010008A3010008A3010008A301000890
:1000C000A3010008A3010008A3010008A301000880
:1000D000A301000881380008A3010008553A000870
:1000E000A3010008A3010008A301000800F002F822
:1000F00000F03AF80AA090E8000C82448344AAF188
:100100000107DA4501D100F02FF8AFF2090EBAE885
:100110000F0013F0010F18BFFB1A43F0010318473B
:10012000E093000000940000103A24BF78C878C122
:10013000FAD8520724BF30C830C144BF04680C60ED
:10014000704700000023002400250026103A28BF35
:1001500078C1FBD8520728BF30C148BF0B60704739
:100160001FB51FBD10B510BD00F046F81146FFF7D2
:10017000F7FF05F055F800F064F803B4FFF7F2FF5D
:1001800003BC00F067F800000948804709480047B1
:10019000FEE7FEE7FEE7FEE7FEE7FEE7FEE7FEE737
:1001A000FEE7FEE704480549054A064B7047000094
:1001B000D9340008ED00000850090020500F00203D
:1001C000500B0020500B0020704770477047000014
:1001D00000487047F008002010B5FFF7F9FF0068ED
:1001E00010BD10B50446FFF7F3FF046010BD00001A
:1001F00000487047F00800207546FFF7F9FFAE464B
:1002000005006946534620F00700854618B020B522
:10021000FFF7C8FFBDE820404FF000064FF0000791
:100220004FF000084FF0000B21F00701AC46ACE89E
:10023000C009ACE8C009ACE8C009ACE8C0098D460B
:10024000704710B50446AFF300802046BDE810406B
:10025000FFF793BF01491820ABBEFEE7260002005E
:10026000704700000FB5AFB0FE488088169006F0CA
:1002700061FB1790399906F0F1FA01D033B000BD57
:1002800005F020F9329034982590349824903498D1
:10029000239034982290379821903898209037985E
:1002A0001F9038981E90F0481D904FF07C501C9085
:1002B0004FF07E501B90ED481A904FF07E51EC4865
:1002C000006806F04BFC02D20020E9490860E848CB
:1002D0001D99006806F092F9E54908604FF07E51DB
:1002E000369806F0BBFA14D14FF080412F9806F0F3
:1002F000F3F91790319906F081F919904FF0804188
:100300002F9806F0E9F91790319906F058FC1890EB
:100310002DE0D849369806F0A1FA14D14FF080416B
:100320002F9806F0D9F91790319906F067F91890CF
:100330004FF080412F9806F0CFF91790319906F0D1
:100340003EFC199013E04FF080412F9806F0C4F95D
:100350001790319906F052F919904FF080412F987B
:1003600006F0BAF91790319906F029FC1890DDE9EA
:100370001B0106F027FB1790BD480168179806F08F
:10038000EDFB7DD8DDE91B1006F01CFB13904FF050
:1003900080401A9906F016FB1190B5480168119833
:1003A00006F010FB1290139906F096F91790179823
:1003B00006F0F8F8CDE9080104F028F90022AE4B68
:1003C000CDE90A0105F012FFCDE90E01309806F0E3
:1003D000E9F8CDE90C01DDE90E2305F009FE002264
:1003E0004FF08043CDE9100105F050FCCDE912013A
:1003F00005F06AFB1690189806F0D4F8CDE91001C4
:100400004FF080401A9906F0DDFA059006F0CAF820
:10041000CDE90801179806F0C5F8CDE9000104F010
:10042000DBFFCDE90401179806F0BCF8CDE9020125
:10043000DDE9042305F0CCFFCDE90601DDE9082361
:1004400005F024FCCDE90C01DDE9181006F0C2FB33
:10045000099006F0A7F8CDE90A01DDE90C2305F0C3
:10046000C7FDCDE90E01DDE9102305F05FFBCDE905
:10047000120105F029FB1590199806F093F800E099
:1004800098E0CDE910014FF080401A9906F09AFAF1
:10049000059006F087F8CDE90801179806F082F874
:1004A000CDE9000104F098FFCDE90401179806F0AA
:1004B00079F8CDE90201DDE9042305F089FFCDE9F2
:1004C0000601DDE9082305F0E1FBCDE90C01DDE9DA
:1004D000180106F07FFB099006F064F8CDE90A01E7
:1004E000DDE90C2305F084FDCDE90E01DDE91023E3
:1004F00005F01CFBCDE9120105F0E6FA14901699FF
:10050000329806F067FB2D9032982C9032982B9001
:100510001699329806F05EFB2A90149880F00040FD
:100520001390219906F04EFA2990159880F000401A
:100530001390209906F046FA2890159880F0004014
:1005400013901F9906F03EFA2790149880F000400F
:1005500013901E9906F036FA2690259A2D9929981F
:1005600004F0EEFF359806F0ADF9139002F0ABF809
:10057000249A2C99289805F005F8359806F0A2F9E8
:10058000139002F0A0F8239A2B99279805F020F8F1
:10059000359806F097F9139002F095F8229A2A9967
:1005A000269805F037F8359806F08CF9139002F08C
:1005B0008AF83DE1DDE91B0106F004FA17902C48AA
:1005C0000168179806F0CAF9F3D229481B99006808
:1005D00006F0C4F9EDD2DDE91B1006F0F3F9139033
:1005E000DDE91B1006F0EEF90F90214801680F9825
:1005F00006F0E5FA11904FF080401A9906F0E2F902
:100600001090119906F0DEF91290139906F064F833
:100610001790179805F0C6FFCDE9080103F0F6FF23
:100620000022154BCDE90A0105F0E0FDCDE90E01F0
:10063000309805F0B7FFCDE90C01DDE90E2305F098
:10064000D7FC00224FF08043CDE9100105F01EFBDE
:10065000CDE9120105F038FA1690189805F0A2FFBE
:100660000CE00000000000200AD7233DC3F54840FD
:100670006C000020000080BF0000F03FCDE91001B9
:100680004FF080401A9906F09DF9059005F08AFF19
:10069000CDE90801179805F085FFCDE9000104F0C8
:1006A0009BFECDE90401179805F07CFFCDE902011E
:1006B000DDE9042305F08CFECDE90601DDE9082320
:1006C00005F0E4FACDE90C01DDE9181006F082FA34
:1006D000099005F067FFCDE90A01DDE90C2305F07B
:1006E00087FCCDE90E01DDE9102305F01FFACDE905
:1006F000120105F0E9F91590199805F053FFCDE9BD
:1007000010014FF080401A9906F05CF9059005F051
:1007100049FFCDE90801179805F044FFCDE9000134
:1007200004F05AFECDE90401179805F03BFFCDE92E
:100730000201DDE9042305F04BFECDE90601DDE908
:10074000082305F0A3FACDE90C01DDE9180106F054
:1007500041FA099005F026FFCDE90A01DDE90C23F5
:1007600005F046FCCDE90E01DDE9102305F0DEF9C8
:10077000CDE9120105F0A8F9149032982D90169940
:10078000329806F027FA2C901699329806F022FA41
:100790002B9032982A90159880F000401390219960
:1007A00006F010F92990149880F0004013902099D9
:1007B00006F008F92890149880F0004013901F99D3
:1007C00006F000F92790159880F0004013901E99CC
:1007D00006F0F8F82690259A2D99299804F0B0FE95
:1007E000359806F06FF8139001F06DFF249A2C995C
:1007F000289804F0C7FE359806F064F8139001F0CD
:1008000062FF239A2B99279804F0E2FE359806F0B0
:1008100059F8139001F057FF229A2A99269804F06C
:10082000F9FE359806F04EF8139001F04CFF00BF2A
:1008300000BF23E50FB5B3B0FE488088169006F0E0
:1008400079F817903D9906F009F801D037B000BD4E
:1008500004F038FE369038982990389828903898C7
:100860002790389826903B9825903C9824903B9868
:1008700023903C982290F04821904FF07C5020909B
:100880004FF07E501F90ED481E904FF07E51EC4887
:10089000006806F063F902D20020E9490860E848E0
:1008A0002199006805F0AAFEE54908604FF08041F3
:1008B000339805F011FF1790359905F09FFE1D90B4
:1008C0004FF08041339805F007FF1790359906F0F7
:1008D00076F91C904FF08041339805F0FDFE17909B
:1008E000359906F06CF91B904FF08041339805F074
:1008F000F3FE1790359905F081FE1A9000201990AB
:1009000018904FF07E513A9805F0A8FF7ED1DDE9AE
:100910001F0106F057F81790C9480168179806F0AC
:100920001DF974D8DDE91F1006F04CF813904FF054
:1009300080401E9906F046F81190C1480168119850
:1009400006F040F81290139905F0C6FE179017981C
:1009500005F028FECDE9080103F058FE0022B94B4E
:10096000CDE90A0105F042FCCDE90E01349805F00D
:1009700019FECDE90C01DDE90E2305F039FB00225B
:100980004FF08043CDE9100105F080F9CDE9120167
:1009900005F09AF816901C9805F004FECDE91001B8
:1009A0004FF080401E9906F00DF8059005F0FAFD15
:1009B000CDE90801179805F0F5FDCDE9000104F037
:1009C0000BFDCDE90401179805F0ECFDCDE902011E
:1009D000DDE9042305F0FCFCCDE90601DDE908238F
:1009E00005F054F9CDE90C01DDE91C1006F0F2F830
:1009F000099005F0D7FDCDE90A01DDE90C2305F0EA
:100A0000F7FACDE90E01DDE9102301E060E22FE104
:100A100005F08CF8CDE9120105F056F815901D98F7
:100A200005F0C0FDCDE910014FF080401E9905F0A2
:100A3000C9FF059005F0B6FDCDE90801179805F04E
:100A4000B1FDCDE9000104F0C7FCCDE90401179820
:100A500005F0A8FDCDE90201DDE9042305F0B8FCAD
:100A6000CDE90601DDE9082305F010F9CDE90C0117
:100A7000DDE91C0106F0AEF8099005F093FDCDE923
:100A80000A01DDE90C2305F0B3FACDE90E01DDE939
:100A9000102305F04BF8CDE9120105F015F814907C
:100AA0001A9805F07FFDCDE910014FF080401E99A6
:100AB00005F088FF059005F075FDCDE90801179850
:100AC00005F070FDCDE9000104F086FCCDE90401DC
:100AD000179805F067FDCDE90201DDE9042305F073
:100AE00077FCCDE90601DDE9082305F0CFF8CDE973
:100AF0000C01DDE91A1006F06DF8099005F052FDC1
:100B0000CDE90A01DDE90C2305F072FACDE90E0109
:100B1000DDE9102305F00AF8CDE9120104F0D4FF55
:100B200019901B9805F03EFDCDE910014FF0804073
:100B30001E9905F047FF059005F034FDCDE9080149
:100B4000179805F02FFDCDE9000104F045FCCDE933
:100B50000401179805F026FDCDE90201DDE9042323
:100B600005F036FCCDE90601DDE9082305F08EF835
:100B7000CDE90C01DDE91A0106F02CF8099005F029
:100B800011FDCDE90A01DDE90C2305F031FACDE9CB
:100B90000E01DDE9102304F0C9FFCDE9120104F0D4
:100BA00093FF18901699369806F014F831903698FD
:100BB000309036982F901699369806F00BF82E90B4
:100BC000189880F000401390259905F0FBFE2D90B9
:100BD000159880F000401390249905F0F3FE2C90B6
:100BE000199880F000401390239905F0EBFE2B90AC
:100BF000149880F000401390229905F0E3FE2A90AB
:100C0000299A31992D9804F09BFC399805F05AFEE9
:100C1000139001F058FD289A30992C9804F0B2FCFA
:100C2000399805F04FFE139001F04DFD279A2F994A
:100C30002B9809E0000000200AD7233DC3F5484067
:100C4000740000200000F03F04F0C2FC399805F069
:100C500039FE139001F037FD269A2E992A9804F058
:100C6000D9FC399805F02EFE139001F02CFDE0E23E
:100C7000DDE91F0105F0A6FE1790FE4801681798F0
:100C800005F06CFEF3D2FB481F99006805F066FE84
:100C9000EDD2DDE91F1005F095FE1390DDE91F1080
:100CA00005F090FE0F90F34801680F9805F087FF5C
:100CB00011904FF080401E9905F084FE109011991C
:100CC00005F080FE1290139905F006FD1790179815
:100CD00005F068FCCDE9080103F098FC0022E64B22
:100CE000CDE90A0105F082FACDE90E01349805F04C
:100CF00059FCCDE90C01DDE90E2305F079F900225C
:100D00004FF08043CDE9100104F0C0FFCDE912019E
:100D100004F0DAFE16901C9805F044FCCDE91001B1
:100D20004FF080401E9905F04DFE059005F03AFC0D
:100D3000CDE90801179805F035FCCDE9000104F074
:100D40004BFBCDE90401179805F02CFCCDE902011D
:100D5000DDE9042305F03CFBCDE90601DDE90823CC
:100D600004F094FFCDE90C01DDE91C1005F032FF21
:100D7000099005F017FCCDE90A01DDE90C2305F027
:100D800037F9CDE90E01DDE9102304F0CFFECDE9FE
:100D9000120104F099FE15901D9805F003FCCDE9B1
:100DA00010014FF080401E9905F00CFE059005F0F3
:100DB000F9FBCDE90801179805F0F4FBCDE9000136
:100DC00004F00AFBCDE90401179805F0EBFBCDE92F
:100DD0000201DDE9042305F0FBFACDE90601DDE9B6
:100DE000082304F053FFCDE90C01DDE91C0105F0F7
:100DF000F1FE099005F0D6FBCDE90A01DDE90C23EF
:100E000005F0F6F8CDE90E01DDE9102304F08EFEC1
:100E1000CDE9120104F058FE1490369831901699DD
:100E2000369805F0D7FE30901699369805F0D2FE28
:100E30002F9036982E90199880F0004013902599A5
:100E400005F0C0FD2D90149880F000401390249977
:100E500005F0B8FD2C90189880F00040139023996D
:100E600005F0B0FD2B90159880F00040139022996A
:100E700005F0A8FD2A90299A31992D9804F060FB7D
:100E8000399805F01FFD139001F01DFC289A309948
:100E90002C9804F077FB399805F014FD139001F0BD
:100EA00012FC279A2F992B9804F092FB399805F0A1
:100EB00009FD139001F007FC269A2E992A9804F058
:100EC000A9FB399805F0FEFC139001F0FCFBE1E270
:100ED0006A493A9805F0C2FCF9D1DDE91F0105F035
:100EE00071FD179063480168179805F037FE7DD8AB
:100EF000DDE91F1005F066FD13904FF080401E994C
:100F000005F060FD11905B480168119805F05AFDED
:100F10001290139905F0E0FB1790179805F042FB2B
:100F2000CDE9080103F072FB0022534BCDE90A0121
:100F300005F05CF9CDE90E01349805F033FBCDE9FD
:100F40000C01DDE90E2305F053F800224FF0804339
:100F5000CDE9100104F09AFECDE9120104F0B4FDD0
:100F600016901C9805F01EFBCDE910014FF0804053
:100F70001E9905F027FD059005F014FBCDE9080149
:100F8000179805F00FFBCDE9000104F025FACDE933
:100F90000401179805F006FBCDE90201DDE9042301
:100FA00005F016FACDE90601DDE9082304F06EFE2E
:100FB000CDE90C01DDE91C1005F00CFE099005F0EF
:100FC000F1FACDE90A01DDE90C2305F011F8CDE9CC
:100FD0000E01DDE9102304F0A9FDCDE9120104F0B2
:100FE00073FD15901D9805F0DDFA00E022E1CDE9D2
:100FF00010014FF080401E9905F0E4FC059005F0CB
:10100000D1FACDE90801179805F0CCFACDE9000135
:1010100004F0E2F9CDE90401179805F0C3FACDE92F
:101020000201DDE9042305F0D3F9CDE90601DDE98C
:10103000082304F02BFECDE90C01DDE91C0105F0CD
:10104000C9FD099005F0AEFACDE90A01DDE90C23EE
:1010500004F0CEFFCDE90E01DDE9102304F066FDBA
:10106000CDE9120104F030FD14901A9805F09AFAB7
:1010700006E00000740000200000F03F000080BF88
:10108000CDE910014FF080401E9905F09BFC0590C2
:1010900005F088FACDE90801179805F083FACDE943
:1010A000000104F099F9CDE90401179805F07AFAE6
:1010B000CDE90201DDE9042305F08AF9CDE9060155
:1010C000DDE9082304F0E2FDCDE90C01DDE91A10A9
:1010D00005F080FD099005F065FACDE90A01DDE92A
:1010E0000C2304F085FFCDE90E01DDE9102304F0A7
:1010F0001DFDCDE9120104F0E7FC19901B9805F0E5
:1011000051FACDE910014FF080401E9905F05AFCCC
:10111000059005F047FACDE90801179805F042FA65
:10112000CDE9000104F058F9CDE90401179805F064
:1011300039FACDE90201DDE9042305F049F9CDE9E9
:101140000601DDE9082304F0A1FDCDE90C01DDE98C
:101150001A0105F03FFD099005F024FACDE90A01D6
:10116000DDE90C2304F044FFCDE90E01DDE9102395
:1011700004F0DCFCCDE9120104F0A6FC18901699ED
:10118000369805F027FD31903698309036982F909C
:101190001699369805F01EFD2E90149880F00040A8
:1011A0001390259905F00EFC2D90199880F00040C1
:1011B0001390249905F006FC2C90159880F00040BF
:1011C0001390239905F0FEFB2B90189880F00040B7
:1011D0001390229905F0F6FB2A90299A31992D98BF
:1011E00004F0AEF9399805F06DFB139001F06BFA3D
:1011F000289A30992C9804F0C5F9399805F062FBCB
:10120000139001F060FA279A2F992B9804F0E0F9D7
:10121000399805F057FB139001F055FA269A2E994C
:101220002A9804F0F7F9399805F04CFB139001F077
:101230004AFA2FE1DDE91F0105F0C4FB179097483A
:101240000168179805F08AFBF3D294481F9900684B
:1012500005F084FBEDD2DDE91F1005F0B3FB139020
:10126000DDE91F1005F0AEFB0F908C4801680F9868
:1012700005F0A5FC11904FF080401E9905F0A2FBEF
:101280001090119905F09EFB1290139905F024FA25
:101290001790179805F086F9CDE9080103F0B6F923
:1012A00000227F4BCDE90A0104F0A0FFCDE90E0139
:1012B000349805F077F9CDE90C01DDE90E2304F04F
:1012C00097FE00224FF08043CDE9100104F0DEFCD0
:1012D000CDE9120104F0F8FB16901C9805F062F9B4
:1012E000CDE910014FF080401E9905F06BFB059091
:1012F00005F058F9CDE90801179805F053F9CDE943
:10130000000104F069F8CDE90401179805F04AF9E5
:10131000CDE90201DDE9042305F05AF8CDE9060123
:10132000DDE9082304F0B2FCCDE90C01DDE91C1075
:1013300005F050FC099005F035F9CDE90A01DDE929
:101340000C2304F055FECDE90E01DDE9102304F075
:10135000EDFBCDE9120104F0B7FB15901D9805F0E7
:1013600021F9CDE910014FF080401E9905F02AFBCC
:10137000059005F017F9CDE90801179805F012F965
:10138000CDE9000104F028F8CDE90401179805F033
:1013900009F9CDE90201DDE9042305F019F8CDE9E9
:1013A0000601DDE9082304F071FCCDE90C01DDE95B
:1013B0001C0105F00FFC099005F0F4F8CDE90A01D5
:1013C000DDE90C2304F014FECDE90E01DDE9102364
:1013D00004F0ACFBCDE9120104F076FB14903698D2
:1013E00031901699369805F0F5FB3090169936989D
:1013F00005F0F0FB2F9036982E90159880F0004065
:101400001390259905F0DEFA2D90189880F0004091
:101410001390249905F0D6FA2C90149880F000408F
:101420001390239905F0CEFA2B90199880F0004084
:101430001390229905F0C6FA2A90299A31992D988D
:1014400004F07EF8399805F03DFA139001F03BF96D
:10145000289A30992C9804F095F8399805F032FACA
:10146000139001F030F9279A2F992B9804F0B0F8D7
:10147000399805F027FA139001F025F9269A2E994C
:101480002A9804F0C7F8399805F01CFA139001F077
:101490001AF900BF00BFFFF7D9B90000740000209F
:1014A0000000F03F0FB5BBB0FE488088169005F0F5
:1014B00041FA1790459905F0D1F901D03FB000BD30
:1014C00004F000F83E904098259040982490409871
:1014D00023904098229043982190449820904398DC
:1014E0001F9044981E90F0481D904FF07C501C9027
:1014F0004FF07E501B90ED481A904FF07E51EC4813
:10150000006805F02BFB02D20020E9490860E8489A
:101510001D99006805F072F8E54908604FF07E51AA
:10152000429805F09BF914D14FF080413B9805F0AB
:10153000D3F817903D9905F061F819904FF080416C
:101540003B9805F0C9F817903D9905F038FB1890C5
:101550002DE0D849429805F081F914D14FF080412F
:101560003B9805F0B9F817903D9905F047F81890A9
:101570004FF080413B9805F0AFF817903D9905F08A
:101580001EFB199013E04FF080413B9805F0A4F842
:1015900017903D9905F032F819904FF080413B9833
:1015A00005F09AF817903D9905F009FB1890DDE9D0
:1015B0001B0105F007FA1790BD480168179805F060
:1015C000CDFA7DD8DDE91B1005F0FCF913904FF042
:1015D00080401A9905F0F6F91190B5480168119804
:1015E00005F0F0F91290139905F076F81790179816
:1015F00004F0D8FFCDE9080103F008F80022AE4B53
:10160000CDE90A0104F0F2FDCDE90E013C9804F0A9
:10161000C9FFCDE90C01DDE90E2304F0E9FC00224D
:101620004FF08043CDE9100104F030FBCDE9120109
:1016300004F04AFA1690189804F0B4FFCDE91001AE
:101640004FF080401A9905F0BDF9059004F0AAFF0B
:10165000CDE90801179804F0A5FFCDE9000103F0DA
:10166000BBFECDE90401179804F09CFFCDE902010F
:10167000DDE9042304F0ACFECDE90601DDE9082331
:1016800004F004FBCDE90C01DDE9181005F0A2FA25
:10169000099004F087FFCDE90A01DDE90C2304F08D
:1016A000A7FCCDE90E01DDE9102304F03FFACDE9F6
:1016B000120104F009FA1590199804F073FF00E084
:1016C000BCE0CDE910014FF080401A9905F07AF99D
:1016D000059004F067FFCDE90801179804F062FF58
:1016E000CDE9000103F078FECDE90401179804F07C
:1016F00059FFCDE90201DDE9042304F069FECDE9DB
:101700000601DDE9082304F0C1FACDE90C01DDE9A9
:10171000180105F05FFA099004F044FFCDE90A01D1
:10172000DDE90C2304F064FCCDE90E01DDE91023B2
:1017300004F0FCF9CDE9120104F0C6F914901699F1
:101740003E9805F047FA39903E9838903E98379089
:1017500016993E9805F03EFA3690149880F00040B5
:101760001390219905F02EF93590159880F00040DE
:101770001390209905F026F93490159880F00040D8
:1017800013901F9905F01EF93390149880F00040D3
:1017900013901E9905F016F932904849239804F0E9
:1017A0002DFF319037982D903398299043492598F3
:1017B00004F024FF309039982C90359828903F49B8
:1017C000229805F007FA2F9036982B9032982790A0
:1017D0003A49249805F0FEF92E9038982A903498CA
:1017E0002690299A2D99319803F0AAFE419805F088
:1017F00069F8139000F067FF289A2C99309803F04D
:10180000C1FE419805F05EF8139000F05CFF279A46
:101810002B992F9803F0DCFE419805F053F81390B4
:1018200000F051FF269A2A992E9803F0F3FE419872
:1018300005F048F8139000F046FF5DE1DDE91B017B
:1018400005F0C0F817901A480168179805F086F857
:10185000F3D217481B99006805F080F8EDD2DDE956
:101860001B1005F0AFF81390DDE91B1005F0AAF886
:101870000F900F4801680F9805F0A1F911904FF0F3
:1018800080401A9905F09EF81090119905F09AF889
:101890001290139904F020FF1790179804F082FE1D
:1018A0000EE00000000000200AD7233DC3F54840A9
:1018B00070000020000080BF0000F03F00002041C9
:1018C000CDE9080102F0A2FE00228C4BCDE90A010D
:1018D00004F08CFCCDE90E013C9804F063FECDE9E8
:1018E0000C01DDE90E2304F083FB00224FF080435E
:1018F000CDE9100104F0CAF9CDE9120104F0E4F8D1
:101900001690189804F04EFECDE910014FF080407B
:101910001A9905F057F8059004F044FECDE9080146
:10192000179804F03FFECDE9000103F055FDCDE925
:101930000401179804F036FECDE90201DDE9042325
:1019400004F046FDCDE90601DDE9082304F09EF927
:10195000CDE90C01DDE9181005F03CF9099004F01F
:1019600021FECDE90A01DDE90C2304F041FBCDE9BC
:101970000E01DDE9102304F0D9F8CDE9120104F0DD
:10198000A3F81590199804F00DFECDE910014FF061
:1019900080401A9905F016F8059004F003FECDE991
:1019A0000801179804F0FEFDCDE9000103F014FDD5
:1019B000CDE90401179804F0F5FDCDE90201DDE958
:1019C000042304F005FDCDE90601DDE9082304F058
:1019D0005DF9CDE90C01DDE9180105F0FBF809908E
:1019E00004F0E0FDCDE90A01DDE90C2304F000FB81
:1019F000CDE90E01DDE9102304F098F8CDE91201DC
:101A000004F062F814903E98399016993E9805F0CB
:101A1000E1F8389016993E9805F0DCF837903E983A
:101A20003690159880F000401390219904F0CAFF79
:101A30003590149880F000401390209904F0C2FF74
:101A40003490149880F0004013901F9904F0BAFF6E
:101A50003390159880F0004013901E9904F0B2FF67
:101A600032902749239804F0C9FD319037982D9082
:101A7000339829902249259804F0C0FD3090399878
:101A80002C90359828901E49229805F0A3F82F90A5
:101A900036982B90329827901949249805F09AF897
:101AA0002E9038982A9034982690299A2D9931981A
:101AB00003F046FD419804F005FF139000F003FE8B
:101AC000289A2C99309803F05DFD419804F0FAFEB5
:101AD000139000F0F8FD279A2B992F9803F078FDCA
:101AE000419804F0EFFE139000F0EDFD269A2A993C
:101AF0002E9803F08FFD00BF00BFDFE40000F03F31
:101B00000000204110B5244801F0A4FA642000F040
:101B1000DAFD214801F032FB642000F0D4FD1E48BC
:101B200001F054FB642000F0CEFD1B4801F072FB75
:101B3000642000F0C8FD184801F094FB642000F018
:101B4000C2FD164801F0B2FB642000F0BCFD124853
:101B500001F0D4FB642000F0B6FD0F4801F0F2FB69
:101B6000642000F0B0FD0E4801F014FC642000F089
:101B7000AAFD094801F092FA642000F0A4FD06488D
:101B800001F0B4FA642000F09EFD034801F0D2FA9F
:101B9000642000F098FD10BD0000B4420000A04297
:101BA0000000AA422DE9FF4F8DB08C49888804F0CF
:101BB000C1FE04461F9904F051FE02D011B0BDE8E9
:101BC000F08F86480569066A4769D0F82480D0F806
:101BD0001890D0F828A0D0F81CB0C06A0C90294604
:101BE0000D9804F0F7FF04467D4904F075FD0B9055
:101BF00031461A9804F0EEFF0446794904F06CFD72
:101C00000A9039460E9804F0E5FF0446744904F042
:101C100063FD099041461B9804F0DCFF04467049BF
:101C200004F05AFD089049460F9804F0D3FF04468B
:101C30006B4904F051FD079051461C9804F0CAFF0F
:101C40000446674904F048FD06905946109804F090
:101C5000C1FF0446624904F03FFD05900C991D98B0
:101C600004F0B8FF04465E4904F036FD04904FF0DE
:101C700080411E9804F030FD0390012426E02046A8
:101C800004F040FE01900B9904F09CFE294602905E
:101C900004F0B4FC51490861204604F033FE019081
:101CA0000A9904F08FFE3146029004F0A7FC4B49DC
:101CB00008620A46116A1069002203F041FC039889
:101CC00004F000FE029000F0FEFC641C142CD6DD33
:101CD000012427E0204604F015FE0190099904F044
:101CE00071FE3946029004F089FC3C494861204667
:101CF00004F008FE0190089904F064FE4146029049
:101D000004F07CFC0146354841620246516A506944
:101D1000002203F037FC039804F0D4FD029000F099
:101D2000D2FC641C142CD5DD012427E0204604F0ED
:101D3000E9FD0190079904F045FE4946029004F040
:101D40005DFC26498861204604F0DCFD019006997F
:101D500004F038FE5146029004F050FC01461F4842
:101D600081620246916A9069002203F031FC039877
:101D700004F0A8FD029000F0A6FC641C142CD5DD34
:101D8000012427E0204604F0BDFD0190059904F0F0
:101D900019FE5946029004F031FC1049C8612046F2
:101DA00004F0B0FD0190049904F00CFE02900C992F
:101DB00004F024FC01460948C1620246D16AD06998
:101DC000002203F027FC039804F07CFD029000F051
:101DD0007AFC641C142CD5DD00BFEFE60000002067
:101DE0000000A0412DE9FF4F95B0C049888804F05C
:101DF000A1FD04462B9904F031FD02D019B0BDE8D5
:101E0000F08FBA480569066A076BD0F81480D0F8DD
:101E10002490D0F834A0D0F818B0806A1490B34859
:101E2000806B1390B148C0691290B048C06A11909D
:101E3000AE48C06B10902946159804F0CBFE0446BE
:101E4000AB4904F049FC0F903146229804F0C2FEE1
:101E50000446A74904F040FC0E903946269804F049
:101E6000B9FE0446A24904F037FC0D90414616988D
:101E700004F0B0FE04469E4904F02EFC0C90494646
:101E8000239804F0A7FE0446994904F025FC0B9022
:101E90005146279804F09EFE0446954904F01CFC28
:101EA0000A905946179804F095FE0446904904F0AC
:101EB00013FC09901499249804F08CFE04468C4974
:101EC00004F00AFC08901399289804F083FE044655
:101ED000874904F001FC07901299189804F07AFEE3
:101EE0000446834904F0F8FB06901199259804F004
:101EF00071FE04467E4904F0EFFB05901099299885
:101F000004F068FE04467A4904F0E6FB04904FF0C2
:101F100080412A9804F0E0FB0390012433E020463E
:101F200004F0F0FC01900F9904F04CFD294602905A
:101F300004F064FB6D490861204604F0E3FC019065
:101F40000E9904F03FFD3146029004F057FB6749BB
:101F50000862204604F0D6FC01900D9904F032FD91
:101F60003946029004F04AFB604908630B461A6B3D
:101F7000196A186903F0E4FA039804F0A3FC0290CC
:101F800000F0A1FB641C142CC9DD012435E02046BF
:101F900004F0B8FC01900C9904F014FD4146029045
:101FA00004F02CFB51494861204604F0ABFC019041
:101FB0000B9904F007FD4946029004F01FFB01460F
:101FC0004A484162204604F09DFC01900A9904F0C1
:101FD000F9FC5146029004F011FB0146434841636D
:101FE00003465A6B596A586903F0CCFA039804F017
:101FF00069FC029000F067FB641C142CC7DD01240F
:1020000035E0204604F07EFC0190099904F0DAFCEA
:102010005946029004F0F2FA34498861204604F0EF
:1020200071FC0190089904F0CDFC0290149904F021
:10203000E5FA01462D488162204604F063FC0190D8
:10204000079904F0BFFC0290139904F0D7FA0146F7
:102050002648816303469A6B996A986903F0B8FA37
:10206000039804F02FFC029000F02DFB641C142C4C
:10207000C7DD012435E0204604F044FC01900699B8
:1020800004F0A0FC0290129904F0B8FA1749C86154
:10209000204604F037FC0190059904F093FC02906F
:1020A000119904F0ABFA01461048C162204604F0D1
:1020B00029FC0190049904F085FC0290109904F029
:1020C0009DFA01460948C1630346DA6BD96AD869AB
:1020D00003F0A0FA039804F0F5FB029000F0F3FA85
:1020E000641C142CC7DD00BF88E60000000000203F
:1020F0000000A0410FB5AFB0FE488088169004F0F4
:1021000019FC1790399904F0A9FB01D033B000BD38
:1021100003F0D8F93290349825903498249034986C
:1021200023903498229037982190389820903798AF
:102130001F9038981E90F0481D904FF07C501C90D6
:102140004FF07E501B90ED481A904FF07E51EC48B6
:10215000006804F003FD02D20020E9490860E84865
:102160001D99006804F04AFAE54908604FF07E5175
:10217000369804F073FB14D14FF080412F9804F08F
:10218000ABFA1790319904F039FA19904FF0804169
:102190002F9804F0A1FA1790319904F010FD1890CF
:1021A0002EE04FF08041369804F058FB14D14FF0E8
:1021B00080412F9804F090FA1790319904F01EFA9C
:1021C00018904FF080412F9804F086FA17903199BB
:1021D00004F0F5FC199013E04FF080412F9804F0C3
:1021E0007BFA1790319904F009FA19904FF0804169
:1021F0002F9804F071FA1790319904F0E0FC1890D0
:10220000DDE91B0104F0DEFB1790BD48016817985B
:1022100004F0A4FC7DD8DDE91B1004F0D3FB13907F
:102220004FF080401A9904F0CDFB1190B44801683A
:10223000119804F0C7FB1290139904F04DFA17900F
:10224000179804F0AFF9CDE9080102F0DFF9002298
:10225000AC4BCDE90A0103F0C9FFCDE90E0130987E
:1022600004F0A0F9CDE90C01DDE90E2303F0C0FE76
:1022700000224FF08043CDE9100103F007FDCDE9C6
:10228000120103F021FC1690189804F08BF9CDE9A7
:1022900010014FF080401A9904F094FB059004F06F
:1022A00081F9CDE90801179804F07CF9CDE9000126
:1022B00003F092F8CDE90401179804F073F9CDE921
:1022C0000201DDE9042304F083F8CDE90601DDE92C
:1022D000082303F0DBFCCDE90C01DDE9181004F064
:1022E00079FC099004F05EF9CDE90A01DDE90C23DF
:1022F00003F07EFECDE90E01DDE9102303F016FCAC
:10230000CDE9120103F0E0FB1590199804F04AF9A9
:1023100000E098E0CDE910014FF080401A9904F0F8
:1023200051FB059004F03EF9CDE90801179804F03F
:1023300039F9CDE9000103F04FF8CDE90401179810
:1023400004F030F9CDE90201DDE9042304F040F89E
:10235000CDE90601DDE9082303F098FCCDE90C0185
:10236000DDE9180104F036FC099004F01BF9CDE911
:102370000A01DDE90C2303F03BFECDE90E01DDE9A6
:10238000102303F0D3FBCDE9120103F09DFB149061
:102390001699329804F01EFC2D9032982C903298A9
:1023A0002B901699329804F015FC2A90149880F01E
:1023B00000401390219904F005FB2990159880F0B6
:1023C00000401390209904F0FDFA2890159880F0B1
:1023D000004013901F9904F0F5FA2790149880F0AC
:1023E000004013901E9904F0EDFA2690259A2D993D
:1023F000299803F0A5F8359804F064FA139000F0DA
:1024000062F9249A2D99299803F0BCF8359804F0C4
:1024100059FA139000F057F9239A2D99299803F04F
:10242000D7F8359804F04EFA139000F04CF9229A40
:102430002D99299803F0EEF8359804F043FA13909B
:1024400000F041F93AE1DDE91B0104F0BBFA179015
:102450002B480168179804F081FAF3D228481B9999
:10246000006804F07BFAEDD2DDE91B1004F0AAFA53
:102470001390DDE91B1004F0A5FA0F9020480168C5
:102480000F9804F09CFB11904FF080401A9904F0D3
:1024900099FA1090119904F095FA1290139904F09A
:1024A0001BF91790179804F07DF8CDE9080102F0A8
:1024B000ADF80022134BCDE90A0103F097FECDE9F8
:1024C0000E01309804F06EF8CDE90C01DDE90E2321
:1024D00003F08EFD00224FF08043CDE9100103F0A0
:1024E000D5FBCDE9120103F0EFFA1690189804F02D
:1024F00059F809E0000000200AD7233DC3F5484001
:10250000680000200000F03FCDE910014FF080404E
:102510001A9904F057FA059004F044F8CDE908013F
:10252000179804F03FF8CDE9000102F055FFCDE91E
:102530000401179804F036F8CDE90201DDE904231F
:1025400003F046FFCDE90601DDE9082303F09EFB19
:10255000CDE90C01DDE9181004F03CFB099004F012
:1025600021F8CDE90A01DDE90C2303F041FDCDE9B5
:102570000E01DDE9102303F0D9FACDE9120103F0D1
:10258000A3FA1590199804F00DF8CDE910014FF059
:1025900080401A9904F016FA059004F003F8CDE98A
:1025A0000801179803F0FEFFCDE9000102F014FFC7
:1025B000CDE90401179803F0F5FFCDE90201DDE94B
:1025C000042303F005FFCDE90601DDE9082303F04C
:1025D0005DFBCDE90C01DDE9180104F0FBFA09907F
:1025E00003F0E0FFCDE90A01DDE90C2303F000FD73
:1025F000CDE90E01DDE9102303F098FACDE91201CF
:1026000003F062FA149032982D901699329804F0E3
:10261000E1FA2C901699329804F0DCFA2B9032985B
:102620002A90159880F000401390219904F0CAF97F
:102630002990149880F000401390209904F0C2F97A
:102640002890149880F0004013901F9904F0BAF974
:102650002790159880F0004013901E9904F0B2F96D
:102660002690259A2D99299802F06AFF359804F052
:1026700029F9139000F027F8249A2D99299802F04F
:1026800081FF359804F01EF9139000F01CF8239A8E
:102690002D99299802F09CFF359804F013F91390B6
:1026A00000F011F8229A2D99299802F0B3FF35987D
:1026B00004F008F9139000F006F800BF00BF25E50C
:1026C00000BFFEE7704700B5034603E04FF47A70A1
:1026D00000F005F8181EA3F10103F7D100BD00EBCF
:1026E000C001C9004FF0E022516100219161052134
:1026F000116100BF4FF0E021096901F48031002928
:10270000F8D004214FF0E0221161704708B53B4832
:10271000C08860B900F060F9394840238022002168
:102720000090084600F034FA00F0EEFA64E0334816
:10273000C08801280CD100F04FF932484023802294
:1027400000210090084600F023FA00F0DDFA53E083
:102750002A48C08802280CD100F03EF92A484023BC
:10276000802200210090084600F012FA00F0CCFA16
:1027700042E02248C08803280CD100F02DF92348FC
:102780004023802200210090084600F001FA00F06A
:10279000BBFA31E01948C08804280CD100F01CF9BC
:1027A0001B484023802200210090084600F0F0F9E9
:1027B00000F0AAFA20E01148C08805280CD100F0EA
:1027C0000BF914484023802200210090084600F0B5
:1027D000DFF900F099FA0FE00848C08806280BD10D
:1027E00000F0FAF80C4840238022002100900846AF
:1027F00000F0CEF900F088FA08BD000000000020CB
:10280000F4860008F48A0008F47E0008F4820008C8
:10281000F48E0008F47A0008F47600082DE9F041FF
:10282000024600250026002000230024002791F8FE
:1028300003C00CF00F0591F803C00CF0100CBCF1B4
:10284000000F03D091F802C04CEA050591F800C0D2
:10285000BCF1000F31D0146800202BE04FF0010CC8
:102860000CFA00F3B1F800C00CEA03069E4220D136
:1028700083004FF00F0C0CFA03F7BC4305FA03FC7E
:102880004CEA040491F803C0BCF1280F06D14FF0C4
:10289000010C0CFA00FCC2F814C00AE091F803C065
:1028A000BCF1480F05D14FF0010C0CFA00FCC2F846
:1028B00010C0401C0828D1D31460B1F800C0BCF18E
:1028C000FF0F34DD546800202EE000F1080C4FF0BB
:1028D000010808FA0CF3B1F800C00CEA03069E42A6
:1028E00021D183004FF00F0C0CFA03F7BC4305FA1B
:1028F00003FC4CEA040491F803C0BCF1280F05D195
:1029000000F1080C08FA0CF8C2F8148091F803C022
:10291000BCF1480F07D100F1080C4FF0010808FA8C
:102920000CF8C2F81080401C0828CED35460BDE8D3
:10293000F0810000F0B50A460023002400210025A4
:1029400000F00046B6F1004F02D11D4EF16901E0E2
:102950001B4E7168C0F3034583B200F44016B6F510
:10296000401F08D121F07061154E766826F0706620
:10297000134F7E6012E000F48016B6F5801F06D17A
:10298000032606FA05F4A14341F0706106E0460D06
:10299000360103FA06F6B14341F0706122B1460DEB
:1029A000360103FA06F6314300F00046B6F1004F57
:1029B00002D1034EF16101E0014E7160F0BD0000F3
:1029C000000001400AB1016100E04161704700BFB1
:1029D000FEE700BFFEE7704700200CE0002106E0A4
:1029E0000022064B03EBC0135A544A1CD1B2802973
:1029F000F6DB421CD0B20828F0DB704788000020CC
:102A00002DE9F04304460D4616461F46284638E099
:102A1000224631E0002A2DDB7F2A2BDC002829DB2F
:102A20003F2827DC4FEAE07C00EB5C7C4FEAEC0CB3
:102A3000DFF8588008EBCC1C1CF802C003464FEAB4
:102A4000E07800EB58784FEAE808A0EBC8094FF0AF
:102A5000010808FA09F82CEA080C01464FEAE07868
:102A600000EB58784FEAE808DFF8209009EBC81827
:102A700008F802C0511C0AB2A1199142CADC411CDB
:102A800008B2E9198142C3DCBDE8F0838800002068
:102A900070B50546002411E080212141294009B18B
:102AA000012100E00021084600F04EF9012000F06D
:102AB0003FF9002000F03CF9601CC4B2082CEBDBAD
:102AC000012000F035F9002000F032F970BD10B59A
:102AD000012000F039F9012000F02AF9002000F06F
:102AE00033F9002000F024F910BD10B5002000F0EB
:102AF0002BF9012000F01CF9012000F025F910BD90
:102B000010B50246012000E050430B1EA1F1010167
:102B1000FAD110BD70B505460C46A01CC4B245F0F4
:102B2000B00000F01DF9102141EA141000F018F96E
:102B300004F00F0000F014F970BD0000F8B506466F
:102B40000F4614461D46082D0CD1A4F120000E4955
:102B500001EB00101023082239460090304600F0A7
:102B600017F80FE0062D0DD1A4F1200000EB400076
:102B7000064901EB40000823062239460090304602
:102B800000F006F8F8BD0000AE6D00089E73000866
:102B90002DE9FF4F80460E469146DDF834B0002502
:102BA00000244A4631464046039BFFF729FF00BFF9
:102BB0005EE0002558E008EB0500002852DB08EB3A
:102BC00005007F284EDC3046F11706EB5171C91025
:102BD0000FB2F11706EB5171C910A6EBC10A002E16
:102BE00005DA781E07B20AF108000FFA80FA3819E0
:102BF000002817DB3819072814DC3819224901EBA3
:102C0000C01008EB0501405C04FB09511BF80110E2
:102C100001FA0AF1084339191B4A02EBC11108EB0A
:102C2000050288543819401C00281BDB3819401C49
:102C3000072817DC3819401C134901EBC01008EBBA
:102C40000501405C04FB09511BF80110CAF10802A0
:102C5000114108433919491C0B4A02EBC11108EB19
:102C600005028854681CC5B24D45A4DB601CC4B283
:102C70000399481EC11700EB5171012202EBE101DB
:102C8000A14296DCBDE8FF8F880000202DE9F047C7
:102C90000646894617461D46DDF82080002417E0C9
:102CA000281B411E0A20FFF72BFFB7FBF0F00A217B
:102CB000B0FBF1F201FB120000F1300A04FB0861E5
:102CC00008B2434652464946FFF738FF601CC4B27B
:102CD000AC42E5DBBDE8F0872DE9F04106468846C9
:102CE00015461F46002409E02A5D04FB076108B26F
:102CF0003B464146FFF722FF601CC4B2285D002816
:102D0000F2D1BDE8F081000010B500240BE00021F5
:102D10002046FFF7FFFE054901EBC410802100F0BB
:102D20002FF8601CC4B2082CF1DB10BD8800002015
:102D300010B5044622464FF480610248FFF742FE78
:102D400010BD0000000C014010B5044622464FF4AF
:102D500000610248FFF736FE10BD0000000C014084
:102D600010B50446FFF7B3FE7820FFF791FE002070
:102D7000FFF78EFE2046FFF78BFEFFF7B6FE10BD75
:102D800070B505460E46FFF7A2FE7820FFF780FEDD
:102D90004020FFF77DFE002404E0285DFFF778FE69
:102DA000601CC4B2B442F8DBFFF79FFE70BD0000A8
:102DB00000B589B00121084600F02AF9012102205E
:102DC00000F026F90121042000F022F9012104205D
:102DD00000F02EF90121082000F02AF918208DF8C2
:102DE00023000F20ADF8200003208DF8220008A951
:102DF0004948FFF713FDC020ADF8200008A9464858
:102E0000FFF70CFD0320ADF8200001214348FFF738
:102E100091FD08A94248FFF701FD4FF47070ADF82D
:102E2000200008A93E48FFF7F9FC4FF0804000F071
:102E30008FFB3C4800F08CFB3B4800F089FB0020F6
:102E4000ADF81A00ADF8160044F61F60ADF8180092
:102E50004720ADF8140000208DF81C0005A94FF0A4
:102E6000804000F0BBFC05A92E4800F0B7FC05A986
:102E70002D4800F0B3FC01A800F09CFC6020ADF8E8
:102E800004000020ADF80C000120ADF80600002081
:102E9000ADF80A0001A94FF0804000F05FFB01A9E6
:102EA0004FF0804000F0A6FB01A94FF0804000F0F9
:102EB000F3FB01A94FF0804000F03EFC01A9194846
:102EC00000F04CFB01A9174800F094FB01A915483C
:102ED00000F0E2FB01A9134800F02EFC01A9124802
:102EE00000F03CFB01A9104800F084FB01A90E484A
:102EF00000F0D2FB01A90C4800F01EFC012188075C
:102F000000F01AFB0121074800F016FB01210648DA
:102F100000F012FB09B000BD0008014000081A00D3
:102F2000000C0140000400400008004010B50446B9
:102F300021464FF0804000F047FC10BD10B504461C
:102F40002146024800F042FC10BD0000000800408D
:102F500010B504462146024800F03AFC10BD0000BE
:102F60000008004010B504462146024800F032FC3B
:102F700010BD00000008004010B5044621464FF087
:102F8000804000F023FC10BD10B5044621464FF0F0
:102F9000804000F01DFC10BD10B5044621464FF0E6
:102FA000804000F017FC10BD10B5044621460248D1
:102FB00000F00AFC10BD00000004004010B50446FB
:102FC0002146024800F002FC10BD00000004004051
:102FD00010B504462146024800F0FAFB10BD00007F
:102FE0000004004010B504462146024800F0F2FB00
:102FF00010BD00000004004010B504462146024800
:1030000000F0E2FB10BD0000000800407047000027
:1030100029B1064AD2690243044BDA6104E0034A4B
:10302000D2698243014BDA61704700000010024010
:1030300029B1064A92690243044B9A6104E0034AAB
:1030400092698243014B9A61704700000010024070
:10305000704700002DE9F04104462146012002F0AE
:1030600003F904460A49204603F036FB8046094925
:1030700003F0A8FC0746084903F0C0FA064603F02F
:1030800021FC85B22846FFF751FFBDE8F081000022
:10309000000034430000FA440000FA432DE9F047F1
:1030A000044621460A2002F0DFF804460C49204677
:1030B00003F085FD81460A4903F00EFB804609496D
:1030C00003F080FC0746084903F098FA064603F02F
:1030D000F9FB85B22846FFF731FFBDE8F087000015
:1030E000000034430000FA440000FA432DE9F041A7
:1030F000044621460B2002F0B7F804460A49204650
:1031000003F0EAFA8046094903F05CFC07460849E7
:1031100003F074FA064603F0D5FB85B22846FFF7A4
:1031200017FFBDE8F0810000000034430000FA44BE
:103130000000FA432DE9F041044621460C2002F03C
:1031400093F804460A49204603F0C6FA8046094926
:1031500003F038FC0746084903F050FA064603F02E
:10316000B1FB85B22846FFF7FDFEBDE8F081000007
:10317000000034430000FA440000FA432DE9F04710
:1031800004462146022002F06FF804460C4920460E
:1031900003F015FD81460A4903F09EFA804609496D
:1031A00003F010FC0746084903F028FA064603F02E
:1031B00089FB85B22846FFF7DFFEBDE8F0870000F7
:1031C000000034430000FA440000FA432DE9F041C6
:1031D00004462146032002F047F804460A492046E7
:1031E00003F07AFA8046094903F0ECFB07460849E8
:1031F00003F004FA064603F065FB85B22846FFF7A4
:10320000C3FEBDE8F0810000000034430000FA4432
:103210000000FA432DE9F04704462146042002F05D
:1032200023F804460C49204603F0C9FC81460A49AC
:1032300003F052FA8046094903F0C4FB07460849E7
:1032400003F0DCF9064603F03DFB85B22846FFF7A4
:10325000A3FEBDE8F0870000000034430000FA44FC
:103260000000FA432DE9F04104462146052001F013
:10327000FBFF04460A49204603F02EFA804609491E
:1032800003F0A0FB0746084903F0B8F9064603F02F
:1032900019FB85B22846FFF787FEBDE8F0810000E4
:1032A000000034430000FA440000FA432DE9F047DF
:1032B00004462146062001F0D7FF04460C4920466B
:1032C00003F07DFC81460A4903F006FA804609496D
:1032D00003F078FB0746084903F090F9064603F02F
:1032E000F1FA85B22846FFF769FEBDE8F0870000D5
:1032F000000034430000FA440000FA432DE9F04195
:1033000004462146072001F0AFFF04460A49204643
:1033100003F0E2F98046094903F054FB07460849E7
:1033200003F06CF9064603F0CDFA85B22846FFF7A4
:103330004FFEBDE8F0810000000034430000FA4475
:103340000000FA432DE9F04704462146082001F029
:103350008BFF04460C49204603F031FC81460A49A4
:1033600003F0BAF98046094903F02CFB07460849E7
:1033700003F044F9064603F0A5FA85B22846FFF7A4
:1033800031FEBDE8F0870000000034430000FA443D
:103390000000FA432DE9F04704462146092001F0D8
:1033A00063FF04460C49204603F009FC81460A49A4
:1033B00003F092F98046094903F004FB07460849E7
:1033C00003F01CF9064603F07DFA85B22846FFF7A4
:1033D00013FEBDE8F0870000000034430000FA440B
:1033E0000000FA4310B5FFF7E3FC10BD10B500F084
:1033F00001F810BD0CB50020019000903348006822
:1034000040F480303149086000BF3048006800F463
:10341000003000900198401C0190009818B9019864
:10342000B0F5A06FF1D12948006800F4003010B168
:103430000120009001E0002000900098012843D175
:103440002348006840F010002149086008460068E1
:1034500020F0030008600846006840F002000860A1
:103460001A4840681949486008464068486008465C
:10347000406840F4806048600846406820F47C1052
:1034800048600846406840F4E81048600846006814
:1034900040F08070086000BF0C48006800F00070C9
:1034A0000028F9D00948406820F003000749486027
:1034B0000846406840F00200486000BF034840688A
:1034C00000F00C000828F9D10CBD000000100240EB
:1034D000002002407047000010B51348006840F01B
:1034E00001001149086008464068104908400E492B
:1034F0004860084600680E4908400B4908600846C5
:10350000006820F4802008600846406820F4FE002F
:1035100048604FF41F008860FFF768FF4FF00060BD
:103520000449086010BD0000001002400000FFF8D0
:10353000FFFFF6FE08ED00E021B1028842F0010233
:10354000028004E002884FF6FE731A400280704742
:1035500001894FF6F87211400181704770B500245F
:1035600000220023058C4FF6FE7635400584028C40
:103570008388048B4FF68F752C40B51E2C400D8828
:103580002C43751E2A400D892A434D882A43144D29
:10359000A8420BD0134DA84208D0134DA84205D025
:1035A000124DA84202D0124DA84213D14FF6F77522
:1035B0002A404D892A434FF6FB752A408D882A43BD
:1035C0004FF6FF652B404FF6FF552B408D892B435F
:1035D000CD892B4383800483CD888586028470BD8A
:1035E000002C0140003401400040014000440140F3
:1035F0000048014070B5002400220023058C4FF6DE
:10360000EF7635400584028C8388048B48F6FF757D
:103610002C404FF6FF452C400D884FF6FF7606EA0A
:1036200005252C434FF6DF752A400D8906EA05155E
:103630002A434D8806EA05152A43154DA84202D0B3
:10364000144DA8421DD14FF67F752A404D894FF683
:10365000FF7606EA05152A434FF6BF752A408D8886
:1036600006EA05152A434FF6FF352B404FF2FF754A
:103670002B408D8906EA85052B43CD8906EA850511
:103680002B4383800483CD880587028470BD0000AE
:10369000002C01400034014070B5002400220023BA
:1036A000058C4FF6FF6635400584028C8388848B39
:1036B0004FF68F752C404FF6FC752C400D882C432F
:1036C0004FF6FF552A400D894FF6FF7606EA05258D
:1036D0002A434D8806EA05252A43154DA84202D003
:1036E000144DA8421DD14FF2FF752A404D894FF667
:1036F000FF7606EA05252A434FF6FF352A408D88D6
:1037000006EA05252A434EF6FF752B404DF6FF7558
:103710002B408D8906EA05152B43CD8906EA051550
:103720002B4383808483CD888587028470BD00000D
:10373000002C01400034014070B500220023002419
:10374000058C4EF6FF7635400584038C8488828B89
:1037500048F6FF752A404FF6FF452A400D884FF680
:10376000FF7606EA05252A434DF6FF752B400D89A5
:1037700006EA05352B434D8806EA05352B430B4DEC
:10378000A84202D00A4DA84208D14BF6FF752C4042
:103790008D894FF6FF7606EA85152C438480828357
:1037A000CD88A0F84050038470BD0000002C01407B
:1037B000003401400021018041808180C18001816D
:1037C00041818181C181704781867047018770473F
:1037D00081877047A0F840107047000000220288DF
:1037E0001D4B98420ED01D4B98420BD0B0F1804F2C
:1037F00008D01B4B984205D01A4B984202D01A4B66
:10380000984204D14FF68F731A404B881A43174BD6
:10381000984207D0164B984204D04FF6FF431A4007
:10382000CB881A4302808B8883850B8803850A4BDB
:1038300098420BD0094B984208D00E4B984205D0C5
:103840000D4B984202D00D4B984201D10B7A038662
:103850000123838270470000002C014000340140A6
:103860000004004000080040000C00400010004030
:103870000014004000400140004401400048014065
:1038800010B540F225516F4800F00DF901287DD1A7
:103890006C4800F032F9C4B2292C07D100206A49E3
:1038A000C880FEF733FF002067498880302C07D19D
:1038B00001206549C880FEF729FF01206249888000
:1038C000312C07D105206049C880FEF71FFF022078
:1038D0005D498880322C07D101205B49C880FEF702
:1038E00015FF032058498880332C07D10220564900
:1038F000C880FEF70BFF042053498880342C07D181
:1039000002205149C880FEF701FF05204E498880FA
:10391000352C07D102204C49C880FEF7F7FE06205F
:1039200049498880362C07D102204749C880FEF7D4
:10393000EDFE072044498880372C07D104204249F6
:10394000C880FEF7E3FE08203F498880382C07D165
:1039500004203D49C880FEF7D9FE09203A498880F5
:10396000392C07D104203849C880FEF7CFFE0A2041
:1039700035498880402C07D104203349C880FEF7A0
:10398000C5FE0B2030498880412C00E058E007D16B
:1039900004202D49C880FEF7B9FE0C202A498880F2
:1039A000422C07D104202849C880FEF7AFFE0D2025
:1039B00025498880432C07D104202349C880FEF77D
:1039C000A5FE0E2020498880442C07D104201E49E2
:1039D000C880FEF79BFE0F201B498880452C07D12D
:1039E00004201949C880FEF791FE102016498880EE
:1039F000462C07D104201449C880FEF787FE112009
:103A000011498880472C07D104200F49C880FEF750
:103A10007DFE12200C498880502C04D101200A49D7
:103A200008810A480860512C04D102200649088107
:103A30000748086040F22551024800F025F800BF11
:103A400010BD000000380140000000200000344399
:103A500000001B4308B540F225510A4800F023F846
:103A600001280ED1074800F048F8C0B200900121AB
:103A7000684601F03DFD40F22551024800F004F88F
:103A800000BF08BD0048004010B50022002340F6EA
:103A90006A14A14200D100BF0A1201249440A3B2CB
:103AA000DC43048010BD70B50246002400230025CD
:103AB000002040F66A16B14200D100BFC1F34215A2
:103AC00001F01F03012606FA03F3012D02D19689A6
:103AD000334006E0022D02D1168A334001E0968A77
:103AE00033400C12012606FA04F41688344013B150
:103AF0000CB1012000E0002070BD01468888C0F3B1
:103B00000800704700BFFEE7490050EAC12018BF17
:103B100004204A0D18BF40F0010040F2FF72B2EBE2
:103B2000515F08BF40F00200012808BF0520704720
:103B30002DE9F74F144694B00021C4E902111599FC
:103B4000079121F00045C9498D4206DC1599C4E969
:103B5000000117B00020BDE8F08FC549DFF814A3BD
:103B6000A9423CDD0799C44E0029C44FC44A1599A7
:103B7000534619DD02F02CFC554506D0C14AC24B14
:103B800002F026FCC4E900010AE04FF0D352BE4B1C
:103B900002F01EFC32463B4602F01AFCC4E900016A
:103BA00017B00120BDE8F08F01F0C0FF554506D0E9
:103BB000B44AB54B01F0BAFFC4E900010AE04FF086
:103BC000D352B14B01F0B2FF32463B4601F0AEFF9B
:103BD000C4E9000117B04FF0FF30BDE8F08FAB49EA
:103BE000A942159978DB21F0004183468846A84A0E
:103BF000A84B02F0FDF90022A74B01F097FF02F05D
:103C00009DF9099002F0C9F906460F469C4A5346B1
:103C100002F0EEF943465A4602F0E8FA80468A4638
:103C2000984A994B3046394602F0E2F92A0D0125AF
:103C30000B924246534602F0D9FA032DC4E9000123
:103C400039D00B98C1F30A51401A05EB45111139CF
:103C5000814230DA9148C346784400EB0510CDF834
:103C60000CA00C90D0E900233046394602F0C0F990
:103C700002460B46049106905846039902F0A8FBB1
:103C800080468A4602460B465846039902F0A0FB3E
:103C9000049B069A02F09CFB83460C9803913946DC
:103CA000D0E90223304602F0A3F95A46039B02F002
:103CB0008FFB6D1CBDE707980028A2BF099817B0BD
:103CC000BDE8F08F616881F000416160099817B02C
:103CD0004042BDE8F08FFFE784461598C1F3130119
:103CE000C0F30A50A0F2F5304FEA601800F01F064A
:103CF000C6F12000139000200690079041F4801E2A
:103D000005206D4676B1664A08EB00017A4452F808
:103D1000213002EB8101B3404A68139922FA01F184
:103D2000194305E05F4908EB0002794451F822107D
:103D3000A1FB0E27A1FB0C131A449A4234BF0123A6
:103D4000002303EB070A05EB8003D3E901B70F4417
:103D50008F4234BF0121002193448B4411B193451C
:103D600002D903E0934501D2012100E00021C3E91B
:103D700001B7514445F82010011EA0F10100C1DC3B
:103D80000298059F00F10050800F12900298DDE923
:103D90000356800002F001F9834628460D9102F097
:103DA00013F96FF01D0202F0BCFFCDE90E013046A1
:103DB00002F00AF96FF03D0202F0B3FF80468A4636
:103DC000384602F001F96FF05D0202F0AAFF0746E3
:103DD00042465346119101F0A9FEDDE90E2301F0A0
:103DE000A5FE5A460D9B01F0A1FE00250E465A463F
:103DF00028460D9B02F0ECFADDE90E2302F0E8FA0A
:103E00004246534602F0E4FA3A46119B02F0EEF9BC
:103E1000DFF898A0244A534602F0EAF8074688469D
:103E2000234A244B3146284602F0E2F83A464346FC
:103E300001F07CFE074688464FF0A84253463146C3
:103E4000284602F0D5F83A46434601F06FFE159A2F
:103E500012F0004F04D0129A81F0004152421292A7
:103E6000C4E90001129817B0BDE8F08FFB21E93FCB
:103E70007CD90240FB21F93F7370032E8A19A33BC2
:103E8000000040543163621A61B4D03DFB213941D6
:103E900083C8C96D305FE43F0000E03FB4570000C5
:103EA0003057000012570000182D4454FB21F93DF3
:103EB0003326A611460B113C2DE9FF4D21F0004899
:103EC00007460C46B8F1795F08DA02F037F80028A7
:103ED00001BF0020324904B0BDE8F08D3A462346C8
:103EE0001046194602F084F8054602462D480E4653
:103EF0000B460621784400F05DF82A46334602F06E
:103F000077F8DDE9022382468B463846214602F0E7
:103F10006FF804460F4652465B462846314602F08B
:103F200067F822463B4602F053FA07468A464FF0AE
:103F3000FF322846314602F0F4FE1B4A90450ADA69
:103F40003A46534602F044FA04B00022BDE8F04D70
:103F5000134B02F04BB9154A4245A8BFA8F500150E
:103F60004FF00004B8BF124D22462B4602F030FA43
:103F70000646884622462B460020094902F028FAC8
:103F800004460D463A4653463046414602F020FA72
:103F900004B022462B46BDE8F04D02F027B90000E0
:103FA0000000F03FE85400003333D33F0000E93F06
:103FB0000000D23F2DE9F0414F1E00EBC70104463F
:103FC000D1E9000115461E4637F006020DD02A46FB
:103FD000334602F00DF87F1E04EBC703D3E900233C
:103FE00001F0A4FD37F00602F1D1022F25D0042FF5
:103FF00013D0062F18BFBDE8F0812A46334601F0E2
:10400000F7FFD4E90A2301F091FD2A46334601F077
:10401000EFFFD4E9082301F089FD2A46334601F079
:10402000E7FFD4E9062301F081FD2A46334601F07B
:10403000DFFFD4E9042301F079FD2A46334601F07D
:10404000D7FFD4E9022301F071FD2A46334601F07F
:10405000CFFFD4E90023BDE8F04101F067BD0000C7
:104060002DE9FF4D054621F0004084B00C46B0F12B
:10407000795F0BDA2846FFF747FD042808BF00F0F8
:104080006FF8284608B02146BDE8F08D2A460B4659
:10409000104601F0ADFF06460F462A46234601F0C2
:1040A000A7FF804626488A4632463B46052178448B
:1040B000FFF780FF83461098029160B3214A224B9C
:1040C0004046514601F094FFCDE900015A46404672
:1040D0005146029B01F08CFF82468846DDE90601CD
:1040E0004FF0FF3202F01DFE5246434602F070F9D7
:1040F00032463B4601F07CFFDDE9062302F068F919
:10410000DDE9002302F064F908B02A462346BDE841
:10411000F04D02F06BB80B465A463046394601F076
:1041200067FF084A084B01F001FD4246534601F083
:104130005FFF08B02A462346BDE8F04D01F0F6BC0B
:1041400026540000495555555555C5BF012202F06A
:10415000E8BD002213461046114601F097BD00004D
:10416000024A0020110702F0DCBD000001FDFFFF44
:104170002DE9F04D0546DFF8388221F000408D4FE3
:1041800082B00C46404520DBA0EB080129430BD050
:104190008949884201DC10D17DB102B02846214610
:1041A000BDE8F04DFFF7D2BF002CC7BF002001468D
:1041B0008248394602B0BDE8F08D0120FCF711F8C5
:1041C00002B0BDE8F04DFFF7C4BF7D49884244DA34
:1041D0007C498142A1BF79487B4902B0BDE8F08D9E
:1041E0002A4623461046194601F002FF834602463E
:1041F00076480E460B4606217844FFF7DBFE5A460A
:10420000334601F0F5FE074671488A465A46334662
:1042100004217844FFF7CEFE5A46334601F0E8FE0B
:104220000022434601F082FC02460B4638465146C6
:1042300001F02CFD2A46234601F0DAFE654A664B62
:1042400001F0D4FF2A46234601F0D0FF02B05B4ABA
:10425000BDE8F04D5C4B01F0C9BF002C4FF00002EF
:104260004BDA464643462846214601F05FFC4FF0B4
:10427000FF3202F056FD0446024658480D460B46F2
:1042800006217844FFF796FE22462B4601F0B0FE49
:10429000804653488A4622462B4604217844FFF73D
:1042A00089FE22462B4601F0A3FE0022334601F090
:1042B0003DFC06468B462046294601F0DDF80446C3
:1042C0000D4632465B464046514601F0DFFC224631
:1042D0002B4601F08DFE3F4A3F4B02F079F8224613
:1042E0002B4601F023FC012202F01BFD02B03B46ED
:1042F000BDE8F04D314A01F079BF2D4B28462146EB
:1043000001F074FF4FF0FF3202F00BFD05460E4640
:1043100001F0B2F800270C4680463A460B4601F001
:1043200005FC82468B463A4623461046194601F064
:104330005FFE2A46334601F059FF52465B4601F0C4
:10434000A5FC824627488B462A46334606217844F8
:10435000FFF730FE2A46334601F04AFECDE9000160
:1043600021482A46334604217844FFF723FE2A4693
:10437000334601F03DFE00220D4B01F0D7FB024613
:104380000B46DDE9000101F081FC4246234601F0C5
:104390002FFE52465B4601F0C9FB3A46234601F028
:1043A000C5FB02B00122BDE8F04D02F0BABC00002E
:1043B0000000F03FFB2109400000F07F182D44541D
:1043C0000000E03F0000603CFB21F93FFC50000092
:1043D00012510000075C143326A6913C7250000075
:1043E00088500000A64F0000BC4F00002DE9F84F98
:1043F00004460D4621F0004000917349814211DCD2
:104400007249884201DC06D12CB120462946BDE81C
:10441000F84FFFF79BBE6E48002DCCBF6D496E492B
:10442000BDE8F88F6D49814211DD6D498142D8BFE9
:104430004FF0FF366DDD20462946FFF765FB042867
:1044400008BFFFF78DFE20462946BDE8F88F654975
:10445000654F25F00045814233DD6449814219DD15
:10446000002632464FF080432046294601F05EFB8D
:1044700080468A4601222046294602F052FC00224C
:104480003B4601F0A5FF4246534601F0FFFB0446C0
:104490000D463EE001260022BA463B46204629460C
:1044A00001F044FB80460F46002253462046294631
:1044B00001F08EFF42463B4601F0E8FB04460D4604
:1044C00027E04B4981421BDDDFF828A102260022AC
:1044D00053462046294601F08BFD00223B4601F061
:1044E00025FB80460F46002253462046294601F010
:1044F0006FFF42463B4601F0C9FB04460D4608E00B
:10450000032622462B4600203B4901F0BFFB044610
:104510000D4622462B461046194601F069FD8B4692
:10452000824602460B4601F063FD074602463348C9
:1045300088460B4606217844FFF73CFD52465B4611
:1045400001F056FD82462E488B463A4643460521E9
:104550007844FFF72FFD3A46434601F049FD0246F5
:104560000B46002E504659460CDA01F0DFFA22467F
:104570002B4601F03DFD01B022462B46BDE8F04F31
:1045800001F034BE01F0D2FA22462B4601F030FD94
:104590001C4A7A4402EBC603D3E9002301F018FF5A
:1045A00022462B4601F014FF174A7A4402EBC60359
:1045B000D3E9002301F01AFE009A002AB8BF81F067
:1045C0000041BDE8F88F0000000010440000F07FBB
:1045D000182D4454FB21F93FFB21F9BF0000DC3FBB
:1045E0000000203E0000F33F0000F03F0000E63FE7
:1045F000008003400000F83F0000F0BF764E00004E
:10460000344E0000D24D00009A4D000000B5244BFE
:1046100021F0004287B09A42DCBF0022134629DD18
:10462000204B9A4208D140B94FF00100FBF7D9FD69
:10463000FFF78FFD07B000BD03DBFFF787FD07B075
:1046400000BD02AAFFF774FA10F0030104BF0DF1D8
:10465000080C9CE80F000DD0012001290ED0022982
:1046600014D00DF1080C00909CE80F00FFF7F8FC47
:1046700007B000BDFFF720FC07B000BD0DF1080C2E
:1046800000909CE80F00FFF7EBFC05E00DF1080C33
:104690009CE80F00FFF710FC07B081F0004100BD5F
:1046A000FB21E93F0000F07F00B58BB0FD480078AA
:1046B00008B90BB000BDFB48007878B1FA48006833
:1046C000FA490968401A4FF23021884206D905207C
:1046D000F4490870022000F03FFDEAE7F248006864
:1046E000F3490968401AF3490968884200D2E0E7B3
:1046F000ED480068EE490860EF48808813287CD2B6
:10470000DFE800F00A1D3853677F95AAC0D6F5F39D
:10471000F2F1F0EFEEEDEC000020E849E84A0292F9
:10472000CDE903210092E74B019205901A46194604
:104730001846FDF737FA0420DA490870B2E34FF063
:104740007E52DE4BDC480068DB490968CDE9043263
:10475000CDE90210D8480068D7490968D94B1A46F4
:10476000CDE9001019461846FDF71CFA0420CD4982
:104770000870E3E74FF08042D04BCF480068CE4945
:104780000968CDE90432CDE90210CB480068CA4976
:104790000968CC4B1A46CDE9001019461846FDF7BA
:1047A00001FA0420BF490870C8E7C748C349C44A92
:1047B0000292CDE903210590C4480090C14B1A46EE
:1047C000194601901846FDF7EDF90420B549087027
:1047D000B4E74FF081404FF07E5102910391CDE953
:1047E0000410B948BA49CDE90010B348006803463F
:1047F000B84AB9490A90B94800E0F4E3FBF732FD42
:104800009CE7B7484FF07E51B64BCDE90231CDE978
:104810000410AD48B449CDE90010A748006803462C
:10482000AC4AAD490A90AD48FBF71CFD86E7AF489E
:104830004FF07E5102910391CDE90410A2489F49A7
:10484000CDE900109C4800680346A94AA3490A9094
:104850000846FBF7EFFF71E7A6484FF07E51A14BEA
:10486000CDE90231CDE9041097489449CDE9001013
:104870009148006803469E4A98490A900846FBF70B
:10488000D9FF5BE74FF082404FF07E5102910391D8
:10489000CDE9041098489949CDE900108648006890
:1048A0000346002296490A908C48FDF723FCF9E262
:1048B00094484FF07E51944ACDE90212CDE904109C
:1048C00081488949CDE900107B4800680346814A48
:1048D00081490A908148FBF7C5FCE3E2F9E2E2E294
:1048E00075E06EE05AE046E02EE017E0FFE773481F
:1048F0004FF07E51844A7B4BCDE90232CDE9041062
:1049000071487949CDE900106B4800680346714A47
:1049100071490A907148FBF7A5FCFCE377487A4996
:104920004FF07E520292CDE90321059066486E4910
:10493000CDE90010604800680346664A66490A905F
:104940006648FBF78FFCE6E370486F494FF07E52F4
:10495000644BCDE90232CDE904105B486249CDE9F0
:1049600000105548006803465A4A5B490A905B4864
:10497000FBF778FCCFE35E484FF07E510291039144
:10498000CDE904104FF081405749614B514ACDE9C0
:10499000001051495F48FCF785FDBCE35E484FF0CD
:1049A0007E51504BCDE90231CDE9041058424949BE
:1049B000574B4D4ACDE9001047495848FCF772FD66
:1049C000A9E3FDF79FF8042036490870A3E3544893
:1049D000006830B9344800685149086000205149E6
:1049E00008705048007860BB2F4800684C4909683F
:1049F000401AB0F57A7F24D34FF083404FF08041C6
:104A000000220692CDE9072109902B4800682A4927
:104A10000968CDE9030228480592029100682649F9
:104A20000968414B1A46CDE9001019461846FDF7B2
:104A3000D9F901203B4908701B48006838490860D3
:104A400030E238480078012871D1174800683449AD
:104A50000968401AB0F57A7F69D34FF083404FF070
:104A60007E5100220692264BCDE90721099012487B
:104A7000006811490968CDE90432CDE902100E48F9
:104A800000680F49284B1A46CDE900101946184610
:104A9000FDF7A8F90220234908700348006820495F
:104AA0000860FFE14400002040000020500000208A
:104AB000480000204C0000200000002000002041A1
:104AC00000000243000070C10000404000002A4383
:104AD000000088410000704100005C420000484234
:104AE0000000A040000080BF000094410000C040D2
:104AF000000050410000E0400000C841000030418B
:104B00000000F041000010413333333F00004041CA
:104B100000003E43000020420000604100000C42C3
:104B200058000020540000200000A041FFE7FE488C
:104B3000007802282CD1FD480068FD490968401A18
:104B4000B0F57A7F24D34FF083404FF07E5100229E
:104B50000692CDE907210990F6480068F5490968F1
:104B6000CDE90302F348059202910068F149096812
:104B7000F14B1A46CDE9001019461846FDF732F9F7
:104B80000320E9490870E9480068E949086089E1BB
:104B9000E548007803282DD1E4480068E449096815
:104BA000401AB0F57A7F25D34FF083404FF07E5105
:104BB00000220692CDE907210990E04A0023DD4852
:104BC0000068DC490968CDE90432CDE90210DC490E
:104BD000D8480068D84B1A46CDE900011946184656
:104BE000FDF700F90420D0490870D0480068D0498A
:104BF000086057E1CC48007804282CD1CB480068E5
:104C0000CB490968401AB0F57A7F24D34FF083402E
:104C10004FF07E5100220692CDE907210990C54848
:104C20000068C4490968CDE90302C24805920291AF
:104C30000068C0490968C04B1A46CDE90010194602
:104C40001846FDF7CFF80520B7490870B748006847
:104C5000B749086026E1B448007805282CD1B3484C
:104C60000068B3490968401AB0F57A7F24D34FF041
:104C700083404FF0804100220692CDE90721099040
:104C8000AC480068AB490968CDE90302A948059220
:104C900002910068A7490968AA4B1A46CDE900109D
:104CA00019461846FDF79EF806209F4908709F4850
:104CB00000689F490860F5E09B48007806282CD1E1
:104CC0009A4800689A490968401AB0F57A7F24D357
:104CD0004FF083404FF0804100229A4BCDE90632DD
:104CE000CDE9081093480068954BCDE9030291483F
:104CF0000293059200688F490968924B1A46CDE9E4
:104D0000001019461846FDF76DF80720864908700F
:104D10008648006886490860C4E083480078072810
:104D20002CD18248006882490968401AB0F57A7F20
:104D300024D34FF083404FF07E5100220692CDE9FC
:104D4000072109907B4800687A490968CDE9030288
:104D5000784805920291006876490968794B1A46AD
:104D6000CDE9001019461846FDF73CF808206E49B9
:104D700008706E4800686E49086093E06A480078E1
:104D800008282ED16948006869490968401AB0F5B9
:104D90007A7F26D34FF083404FF07E51694A00233B
:104DA000CDE90632CDE9081019461A46644B614830
:104DB0000068CDE90332059102905E4800685D49C4
:104DC0000968604B1A46CDE9001019461846FDF7F0
:104DD00009F809205449087054480068544908608B
:104DE00060E05148007809282CD1504800685049AB
:104DF0000968401AB0F57A7F24D34FF083404FF012
:104E00007E5100220692CDE90721099049480068A9
:104E100048490968CDE903024648059202910068B5
:104E200044490968474B1A46CDE90010194618460F
:104E3000FCF7D8FF0A203C4908703C4800683C4910
:104E400008602FE0384800780A282BD137480068DE
:104E500037490968401AB0F57A7F23D34FF0834071
:104E60004FF0804100220692CDE907210990314898
:104E7000006830490968CDE903022E480592029185
:104E800000682C49096800231A46CDE9001019462C
:104E90001846FCF7A7FF0020234908702348006844
:104EA0002349086037E128484FF07E510291039171
:104EB000CDE904104FF081402449CDE900101D4890
:104EC00000680346224A23490A900020FBF7CAF9EA
:104ED00021E12148006830B9144800681E49086083
:104EE00000201E4908701D480078E8BB0F48006884
:104EF00019490968401AB0F57A7F44D318488102ED
:104F000000220692CDE9072109900A480068094964
:104F10000968CDE903020748059202910068054936
:104F20000968104B1A4620E0540000204000002081
:104F300058000020000000200000A0410000F041C7
:104F4000000002430000F0C10000884100000C4254
:104F50000000704100005C42600000205C00002006
:104F600000009041000070C10DE0CDE9001019462D
:104F70001846FCF737FF0120694908706948006846
:104F800069490860C2E06648007801282CD165486C
:104F9000006865490968401AB0F57A7F24D36348F0
:104FA0004FF07E5100220692CDE90721099060481A
:104FB00000685F490968CDE903025D4805920291E6
:104FC00000685B4909685B4B1A46CDE90010194639
:104FD0001846FCF707FF0220514908705148006845
:104FE0005149086092E092E04D48007802282DD1A6
:104FF0004C4800684C490968401AB0F5FA6F25D34F
:105000004A484FF07E514C4A0023CDE90632CDE9A3
:10501000081019461A46494B45480068CDE9033245
:10502000059102904248006841490968444B1A467C
:10503000CDE9001019461846FCF7D4FE0320384984
:10504000087038480068384908605FE034480078E4
:1050500003282DD13348006833490968401AB0F558
:10506000FA6F25D331484FF07E51364A0023CDE9FF
:105070000632CDE9081019461A46334B2C48006811
:10508000CDE9033205910290294800682849096852
:105090002E4B1A46CDE9001019461846FCF7A2FE21
:1050A00004201F4908701F4800681F4908602DE050
:1050B0001B480078042829D11A4800681A49096851
:1050C000401AB0F5FA6F21D31848810200220692E7
:1050D000CDE9072109901648006815490968CDE90E
:1050E0000302134805920291006811490968184BA0
:1050F0001A46CDE9001019461846FCF773FE002049
:1051000007490870074800680749086003E0042061
:105110001049087000BF00BF00BFFFF7CABA000007
:105120005C00002040000020600000200000904152
:10513000000000200000A0C1000070420000DC421E
:10514000000034C200005C420000E642000020C2C1
:10515000000070C14400002038B50546FDF73CFC56
:1051600008232BA200210846FDF7B6FD08200223E4
:105170002A46002100903020FDF788FDFDF7C4FD90
:105180000120254988800020C87301243CE00D2CB3
:1051900038D2DFE804F037070B0F13171B1F232744
:1051A0002B2F33001D48FDF755FF2BE01B48FDF763
:1051B000E5FF27E01948FEF709F823E01748FEF756
:1051C00029F81FE01548FEF74DF81BE01348FEF7DD
:1051D0006DF817E01148FEF791F813E00F48FEF75D
:1051E000B1F80FE00D48FEF7D5F80BE00B48FDF7DE
:1051F00055FF07E00948FDF779FF03E00748FDF791
:1052000099FF00BF00BF641C0C2CC0DD38BD00003E
:105210004552524F523A0000000000200000B442B4
:10522000FEF7E0F811200C49888002200B49087035
:105230000B4800680B49086004200849087009E021
:10524000FFF732FA06480068401D0549086008204B
:10525000FDF739FAF4E700000000002044000020C8
:10526000400000205000002070B504460D460D2C73
:1052700070D2DFE804F0A40714212E3B4855627079
:105280007D8A97000021284601F068FB00D20025A6
:105290004F49284601F062FC00D24D4D94E00021B8
:1052A000284601F05BFB00D200254949284601F061
:1052B00055FC00D2464D87E00021284601F04EFB08
:1052C00000D200254249284601F048FC00D2404D5A
:1052D0007AE00021284601F041FB00D200253C493C
:1052E000284601F03BFC00D2394D6DE000212846F4
:1052F00001F034FB00D200253549284601F02EFC90
:1053000000D2334D60E00021284601F027FB00D297
:1053100000252F49284601F021FC00D22C4D53E0F6
:105320000021284601F01AFB00D200252849284612
:1053300001F014FC00D2264D46E00021284601F081
:105340000DFB00D200252249284601F007FC00D2BF
:105350001F4D39E033E00021284601F0FFFA00D26A
:1053600000251B49284601F0F9FB00D2184D2BE01F
:105370000021284601F0F2FA00D2002514492846FF
:1053800001F0ECFB00D2124D1EE00021284601F096
:10539000E5FA00D200250E49284601F0DFFB00D2D5
:1053A0000B4D11E00021284601F0D8FA00D200256B
:1053B0000749284601F0D2FB00D2054D04E0054D17
:1053C0000120FFF7C9FE00BF00BF284670BD0000E6
:1053D000000034430000B44200B5254B21F00042E8
:1053E00087B09A4203DC0022134600922BE0214B47
:1053F0009A4208D140B94FF00100FAF7F2FEFEF7E9
:10540000A8FE07B000BD03DBFEF7A0FE07B000BD9D
:1054100002AAFEF78DFB10F003014FF001000DD042
:10542000012914D002291AD00DF1080C9CE80F00B4
:10543000FEF742FD07B081F0004100BD0DF1080C00
:1054400000909CE80F00FEF70BFE07B000BD0DF1C9
:10545000080C9CE80F00FEF72FFD07B000BD0DF112
:10546000080C00909CE80F00FEF7FAFDE2E7000050
:10547000FB21E93F0000F07F2DE9F04106460F4691
:1054800000F0C0FE041E0D4618BF0120284320F086
:105490000040C0F17F6000F1E040C00F0ED0301C32
:1054A00018BF0120384320F00040C0F17F6000F1B8
:1054B000E040C00F04BF0120FAF793FE20462946C2
:1054C000BDE8F08107490989012901D1064807E0B3
:1054D00004490989022901D1044801E00149086809
:1054E00070470000000000200000344300001B4310
:1054F00070B502460B461048C07800B970BD002058
:1055000015E0145C0D494D884988491C0B4E71808B
:10551000314649684C5534466188CC1701EB146418
:105520002412A1EB042435466C80411CC8B2984279
:10553000E7DB00BFE2E700007008002078000020F1
:10554000F0B585B005460E46144684F0004402A826
:1055500003A904AB2246CDE900103146284600F0ED
:1055600079F80748049901F049F80746FDF772FDFC
:105570000398FDF703FE0298FDF728FE05B0F0BD85
:1055800000003442F0B585B004460D46164602A828
:1055900003A904AB3246CDE900102946204600F0AD
:1055A00059F80948049901F029F80746FDF732FE39
:1055B0000398FDF757FE0549029801F00BFB0746DB
:1055C000FDF774FE05B0F0BD00003442000020413C
:1055D000F0B585B005460E46144684F0004402A896
:1055E00003A904AB2246CDE900103146284600F05D
:1055F00031F80748049901F001F80746FDF77EFEEF
:105600000398FDF79FFE0298FDF7C4FE05B0F0BDBC
:1056100000003442F0B585B004460D46164602A897
:1056200003A904AB3246CDE900102946204600F01C
:1056300011F80748049900F0E1FF0746FDF72EFD39
:105640000398FDF753FD0298FDF774FD05B0F0BD1A
:10565000000034420FB597B0FB481690159000211A
:10566000179801F07BFA7DD8179800F09BFF21F086
:105670000041CDE9060100F027FA17901999084674
:1056800001F0A0F902901899084601F09BF90190E9
:10569000029900F0B3FF039000F084FFCDE904010C
:1056A000FFF7EAFECDE9060100F00EFA1390DDE9FE
:1056B000181001F011F80B900B9800F073FFCDE972
:1056C0000201FEF793FEE14AE14BCDE9040100F04F
:1056D0008FFCCDE9060100F0F7F911901399084607
:1056E00001F070F902901799084601F06BF90190EA
:1056F000029900F083FF039000F054FFCDE904010C
:10570000FFF7BAFECDE9060100F0DEF91490139917
:10571000179800F0E1FF0A900A9800F043FFCDE9E6
:105720000201FEF763FEC94AC94BCDE9040100F04E
:105730005FFCCDE9060100F0C7F912904FF0804000
:10574000169901F03FF90590149901F03BF9079083
:105750001599084601F036F905901499084601F0AC
:1057600031F900E06DE003901699084601F02AF93E
:105770000290039900F042FF0490059901F02AFA83
:105780000690079900F0A8FF0990099800F00AFF19
:10579000CDE90201FEF7ECFCAC4AAD4BCDE90401CA
:1057A00000F026FCCDE9060100F08EF910904FF0D4
:1057B0008040169901F006F90590159901F002F95B
:1057C00007901499084601F0FDF8059015990846D0
:1057D00001F0F8F803901699084601F0F3F80290EA
:1057E000039900F00BFF0490059901F0F3F906907E
:1057F000079900F071FF0890089800F0D3FECDE9FA
:105800000201FEF7B5FC914A914BCDE9040100F08D
:10581000EFFBCDE9060100F057F90F9012991098AF
:1058200001F0D8F98B49079000F0E8FE0E908A4805
:105830000E9901F0CFF907900F9901F0CBF90D9077
:10584000EFE00021179801F089F8F9D2179800F0DD
:10585000A9FE21F00041CDE9060100F035F91790CD
:105860001999084601F0AEF802901899084601F01F
:10587000A9F80190029900F0C1FE039000F092FE99
:10588000CDE90401FFF7F8FDCDE9060100F01CF9B0
:105890001390DDE9181000F01FFF0B900B9800F03B
:1058A00081FECDE90201FEF7A1FD684A684BCDE912
:1058B000040100F09DFBCDE9060100F005F911900F
:1058C0001899084601F07EF802901799084601F0F1
:1058D00079F80190029900F091FE039000F062FEC9
:1058E000CDE90401FFF7C8FDCDE9060100F0ECF8B1
:1058F0001490DDE9170100F0EFFE0A900A9800F01D
:1059000051FECDE90201FEF771FD504A504BCDE941
:10591000040100F06DFBCDE9060100F0D5F812900E
:105920004FF08040169901F04DF80590149901F060
:1059300049F807901599084601F044F80590149924
:10594000084601F03FF803901699084601F03AF82E
:105950000290039900F052FE0490059901F03AF983
:105960000690079900F0B8FE0990099800F01AFE19
:10597000CDE90201FEF7FCFB344A354BCDE90401C9
:1059800000F036FBCDE9060100F09EF810904FF0D4
:105990008040169901F016F80590159901F012F85B
:1059A00007901499084601F00DF8059015990846DE
:1059B00001F008F803901699084601F003F80290E8
:1059C000039900F01BFE0490059901F003F906907D
:1059D000079900F081FE0890089800F0E3FDCDE9FA
:1059E0000201FEF7C5FB194A194BCDE9040100F08D
:1059F000FFFACDE9060100F067F80F9012991098B0
:105A000000F0FCFD1349079000F0F8FD0E901248DD
:105A10000E9901F0DFF807900F9901F0DBF80D9077
:105A200000BF0E49119800F0E9FD0C9000210E987E
:105A300001F094F816D20A490E9800F08FFF11D2A7
:105A40000E991A98016010E00000C842E79AD561EB
:105A500094A94C4000003442000087430000B44247
:105A60000000024313491A98016013490D9801F090
:105A700075F808D211490D9800F070FF03D20D9906
:105A80001C98016002E00E491C9801600A490C98BC
:105A900001F064F808D20B490C9800F05FFF03D2C4
:105AA0000C991D98016002E005491D9801601BB02A
:105AB00000BD00000000344200000C42000007431B
:105AC0000000B4420000344321F00042A2F16052D1
:105AD000B2F5801F01F0004328BFD2F17F6C0BD9D3
